{
  "_format": "hh-sol-artifact-1",
  "contractName": "MediaVerification",
  "sourceName": "contracts/MediaVerification.sol",
  "abi": [
    {
      "anonymous": false,
      "inputs": [
        {
          "indexed": true,
          "internalType": "string",
          "name": "mediaHash",
          "type": "string"
        },
        {
          "indexed": false,
          "internalType": "bool",
          "name": "isAI",
          "type": "bool"
        },
        {
          "indexed": false,
          "internalType": "uint8",
          "name": "confidence",
          "type": "uint8"
        },
        {
          "indexed": true,
          "internalType": "address",
          "name": "uploader",
          "type": "address"
        },
        {
          "indexed": false,
          "internalType": "uint256",
          "name": "timestamp",
          "type": "uint256"
        }
      ],
      "name": "MediaRegistered",
      "type": "event"
    },
    {
      "inputs": [
        {
          "internalType": "string",
          "name": "_mediaHash",
          "type": "string"
        }
      ],
      "name": "mediaExists",
      "outputs": [
        {
          "internalType": "bool",
          "name": "",
          "type": "bool"
        }
      ],
      "stateMutability": "view",
      "type": "function"
    },
    {
      "inputs": [
        {
          "internalType": "string",
          "name": "_mediaHash",
          "type": "string"
        },
        {
          "internalType": "bool",
          "name": "_isAI",
          "type": "bool"
        },
        {
          "internalType": "uint8",
          "name": "_confidence",
          "type": "uint8"
        }
      ],
      "name": "registerMedia",
      "outputs": [],
      "stateMutability": "nonpayable",
      "type": "function"
    },
    {
      "inputs": [
        {
          "internalType": "string",
          "name": "_mediaHash",
          "type": "string"
        }
      ],
      "name": "verifyMedia",
      "outputs": [
        {
          "internalType": "bool",
          "name": "isAI",
          "type": "bool"
        },
        {
          "internalType": "uint8",
          "name": "confidence",
          "type": "uint8"
        },
        {
          "internalType": "uint256",
          "name": "timestamp",
          "type": "uint256"
        },
        {
          "internalType": "address",
          "name": "uploader",
          "type": "address"
        }
      ],
      "stateMutability": "view",
      "type": "function"
    }
  ],
  "bytecode": "0x608060405234801561001057600080fd5b50610a9f806100206000396000f3fe608060405234801561001057600080fd5b50600436106100415760003560e01c806397f5845914610046578063bccc18c714610079578063c5a0f58f146100a9575b600080fd5b610060600480360381019061005b91906105e8565b6100c5565b60405161007094939291906106c2565b60405180910390f35b610093600480360381019061008e91906105e8565b610216565b6040516100a09190610707565b60405180910390f35b6100c360048036038101906100be919061077a565b610244565b005b600080600080600080866040516100dc919061085a565b9081526020016040518091039020600101540361012e576040517f08c379a0000000000000000000000000000000000000000000000000000000008152600401610125906108ce565b60405180910390fd5b6000808660405161013f919061085a565b90815260200160405180910390206040518060800160405290816000820160009054906101000a900460ff161515151581526020016000820160019054906101000a900460ff1660ff1660ff168152602001600182015481526020016002820160009054906101000a900473ffffffffffffffffffffffffffffffffffffffff1673ffffffffffffffffffffffffffffffffffffffff1673ffffffffffffffffffffffffffffffffffffffff1681525050905080600001518160200151826040015183606001519450945094509450509193509193565b600080600083604051610229919061085a565b90815260200160405180910390206001015414159050919050565b6000835111610288576040517f08c379a000000000000000000000000000000000000000000000000000000000815260040161027f9061093a565b60405180910390fd5b60648160ff1611156102cf576040517f08c379a00000000000000000000000000000000000000000000000000000000081526004016102c6906109a6565b60405180910390fd5b600080846040516102e0919061085a565b90815260200160405180910390206001015414610332576040517f08c379a000000000000000000000000000000000000000000000000000000000815260040161032990610a12565b60405180910390fd5b604051806080016040528083151581526020018260ff1681526020014281526020013373ffffffffffffffffffffffffffffffffffffffff1681525060008460405161037e919061085a565b908152602001604051809103902060008201518160000160006101000a81548160ff02191690831515021790555060208201518160000160016101000a81548160ff021916908360ff1602179055506040820151816001015560608201518160020160006101000a81548173ffffffffffffffffffffffffffffffffffffffff021916908373ffffffffffffffffffffffffffffffffffffffff1602179055509050503373ffffffffffffffffffffffffffffffffffffffff1683604051610446919061085a565b60405180910390207ffc3d0c333faa3effeff2d90f10b7922bb0593f18b9a90d520d0c07a37de9e1fe84844260405161048193929190610a32565b60405180910390a3505050565b6000604051905090565b600080fd5b600080fd5b600080fd5b600080fd5b6000601f19601f8301169050919050565b7f4e487b7100000000000000000000000000000000000000000000000000000000600052604160045260246000fd5b6104f5826104ac565b810181811067ffffffffffffffff82111715610514576105136104bd565b5b80604052505050565b600061052761048e565b905061053382826104ec565b919050565b600067ffffffffffffffff821115610553576105526104bd565b5b61055c826104ac565b9050602081019050919050565b82818337600083830152505050565b600061058b61058684610538565b61051d565b9050828152602081018484840111156105a7576105a66104a7565b5b6105b2848285610569565b509392505050565b600082601f8301126105cf576105ce6104a2565b5b81356105df848260208601610578565b91505092915050565b6000602082840312156105fe576105fd610498565b5b600082013567ffffffffffffffff81111561061c5761061b61049d565b5b610628848285016105ba565b91505092915050565b60008115159050919050565b61064681610631565b82525050565b600060ff82169050919050565b6106628161064c565b82525050565b6000819050919050565b61067b81610668565b82525050565b600073ffffffffffffffffffffffffffffffffffffffff82169050919050565b60006106ac82610681565b9050919050565b6106bc816106a1565b82525050565b60006080820190506106d7600083018761063d565b6106e46020830186610659565b6106f16040830185610672565b6106fe60608301846106b3565b95945050505050565b600060208201905061071c600083018461063d565b92915050565b61072b81610631565b811461073657600080fd5b50565b60008135905061074881610722565b92915050565b6107578161064c565b811461076257600080fd5b50565b6000813590506107748161074e565b92915050565b60008060006060848603121561079357610792610498565b5b600084013567ffffffffffffffff8111156107b1576107b061049d565b5b6107bd868287016105ba565b93505060206107ce86828701610739565b92505060406107df86828701610765565b9150509250925092565b600081519050919050565b600081905092915050565b60005b8381101561081d578082015181840152602081019050610802565b60008484015250505050565b6000610834826107e9565b61083e81856107f4565b935061084e8185602086016107ff565b80840191505092915050565b60006108668284610829565b915081905092915050565b600082825260208201905092915050565b7f4e6f7420666f756e640000000000000000000000000000000000000000000000600082015250565b60006108b8600983610871565b91506108c382610882565b602082019050919050565b600060208201905081810360008301526108e7816108ab565b9050919050565b7f496e76616c696420686173680000000000000000000000000000000000000000600082015250565b6000610924600c83610871565b915061092f826108ee565b602082019050919050565b6000602082019050818103600083015261095381610917565b9050919050565b7f496e76616c696420636f6e666964656e63650000000000000000000000000000600082015250565b6000610990601283610871565b915061099b8261095a565b602082019050919050565b600060208201905081810360008301526109bf81610983565b9050919050565b7f416c726561647920726567697374657265640000000000000000000000000000600082015250565b60006109fc601283610871565b9150610a07826109c6565b602082019050919050565b60006020820190508181036000830152610a2b816109ef565b9050919050565b6000606082019050610a47600083018661063d565b610a546020830185610659565b610a616040830184610672565b94935050505056fea2646970667358221220cc6bca1653b7ac8749d3484ad0a4babe1ab1e8bb8365628c0d57cd528b7c323764736f6c63430008140033",
  "linkReferences": {},
  "deployedLinkReferences": {}
}